{
  "contractName": "Tickets",
  "abi": [
    {
      "constant": true,
      "inputs": [
        {
          "name": "",
          "type": "uint256"
        }
      ],
      "name": "tickets",
      "outputs": [
        {
          "name": "id",
          "type": "uint256"
        },
        {
          "name": "price",
          "type": "uint256"
        },
        {
          "name": "owner",
          "type": "address"
        }
      ],
      "payable": false,
      "stateMutability": "view",
      "type": "function"
    },
    {
      "constant": true,
      "inputs": [],
      "name": "owner",
      "outputs": [
        {
          "name": "",
          "type": "address"
        }
      ],
      "payable": false,
      "stateMutability": "view",
      "type": "function"
    },
    {
      "inputs": [],
      "payable": false,
      "stateMutability": "nonpayable",
      "type": "constructor"
    },
    {
      "constant": false,
      "inputs": [
        {
          "name": "_index",
          "type": "uint256"
        }
      ],
      "name": "buyTicket",
      "outputs": [],
      "payable": true,
      "stateMutability": "payable",
      "type": "function"
    }
  ],
  "bytecode": "0x6080604052336000806101000a81548173ffffffffffffffffffffffffffffffffffffffff021916908373ffffffffffffffffffffffffffffffffffffffff16021790555034801561005057600080fd5b5060008090505b600a8110156101015780600182600a8110151561007057fe5b600302016000018190555067016345785d8a0000600182600a8110151561009357fe5b60030201600101819055506000600182600a811015156100af57fe5b6003020160020160006101000a81548173ffffffffffffffffffffffffffffffffffffffff021916908373ffffffffffffffffffffffffffffffffffffffff1602179055508080600101915050610057565b5061030e806101116000396000f3fe608060405260043610610051576000357c01000000000000000000000000000000000000000000000000000000009004806350b447121461005657806367dd74ca146100df5780638da5cb5b1461010d575b600080fd5b34801561006257600080fd5b5061008f6004803603602081101561007957600080fd5b8101908080359060200190929190505050610164565b604051808481526020018381526020018273ffffffffffffffffffffffffffffffffffffffff1673ffffffffffffffffffffffffffffffffffffffff168152602001935050505060405180910390f35b61010b600480360360208110156100f557600080fd5b81019080803590602001909291905050506101b3565b005b34801561011957600080fd5b506101226102bd565b604051808273ffffffffffffffffffffffffffffffffffffffff1673ffffffffffffffffffffffffffffffffffffffff16815260200191505060405180910390f35b600181600a8110151561017357fe5b600302016000915090508060000154908060010154908060020160009054906101000a900473ffffffffffffffffffffffffffffffffffffffff16905083565b600a811080156101c4575060008110155b15156101cf57600080fd5b600073ffffffffffffffffffffffffffffffffffffffff16600182600a811015156101f657fe5b6003020160020160009054906101000a900473ffffffffffffffffffffffffffffffffffffffff1673ffffffffffffffffffffffffffffffffffffffff1614151561024057600080fd5b600181600a8110151561024f57fe5b6003020160010154341015151561026557600080fd5b33600182600a8110151561027557fe5b6003020160020160006101000a81548173ffffffffffffffffffffffffffffffffffffffff021916908373ffffffffffffffffffffffffffffffffffffffff16021790555050565b6000809054906101000a900473ffffffffffffffffffffffffffffffffffffffff168156fea165627a7a723058209f5e787d45f3a5b57de74c34cbf0d2a6254b5b1a4f454d5131d6ca9f41f01d8b0029",
  "source": "// SPDX-License-Identifier: MIT \r\npragma solidity >=0.4.22 <0.9.0;\r\n\r\ncontract Tickets {\r\n\r\n    uint256 constant TOTAL_TICKETS = 10;\r\n\r\n    address public owner = msg.sender;\r\n\r\n    struct Ticket {\r\n        uint256 id;\r\n        uint256 price;\r\n        address owner;\r\n    }\r\n\r\n    Ticket[TOTAL_TICKETS] public tickets;\r\n\r\n    constructor() public {\r\n        for (uint256 i = 0; i < TOTAL_TICKETS; i++) {\r\n            tickets[i].id = i;\r\n            tickets[i].price = 1e17; // 0.1 ETH\r\n            tickets[i].owner = address(0x0);\r\n        }\r\n    }\r\n\r\n    function buyTicket(uint256 _index) external payable {\r\n        require(_index < TOTAL_TICKETS && _index >= 0);\r\n        require(tickets[_index].owner == address(0x0));\r\n        require(msg.value >= tickets[_index].price);\r\n        tickets[_index].owner = msg.sender;\r\n    }\r\n}",
  "sourcePath": "C:\\Users\\knfis\\OneDrive\\Documents\\MTU\\FinalYearProject\\Prototype\\contracts\\Tickets.sol",
  "compiler": {
    "name": "solc",
    "version": "0.5.1+commit.c8a2cb62.Emscripten.clang"
  },
  "schemaVersion": "3.4.16",
  "updatedAt": "2023-11-17T11:25:17.552Z",
  "networkType": "ethereum",
  "devdoc": {
    "methods": {}
  },
  "userdoc": {
    "methods": {}
  }
}